:100000000000042089040000C9040000CB040000A3
:10001000CD040000CF040000D10400000000000067
:10002000000000000000000000000000D3040000F9
:10003000D504000000000000D7040000D90400002F
:10004000DD04000059400000E1040000E30400006A
:10005000E5040000E7040000E9040000EB040000F0
:1000600089400000EF040000F1040000F3040000E8
:10007000F5040000F7040000F9040000FB04000090
:10008000FD040000FF04000001050000030500005E
:100090000505000007050000090500000B0500002C
:1000A0000D0500000F0500001105000013050000FC
:1000B0001505000017050000DB040000DB0400004C
:1000C000190500001B0500001D0500001F050000AC
:1000D000210500002305000025050000270500007C
:1000E000290500002B0500002D0500002F0500004C
:0800F000DB04000031050000F3
:1000F800804B1B68082B1CD07F4AD2F8883043F409
:100108007003C2F88830BFF34F8FBFF36F8F4FF083
:100118001023D3F80032002BC0F2B9804FF010231F
:10012800D3F80432002BC0F2B280744B744A1A60C0
:100138007047744B1B6863B94FF080430022C3F8C3
:100148000C21C3F81021C3F838256A4B1B68082B0B
:10015800D2D16C4B1B68002B4AD14FF08052D2F899
:100168000414694BC3F82015D2F80814C3F82415F1
:10017800D2F80C14C3F82815D2F81014C3F82C15AB
:10018800D2F81414C3F83015D2F81814C3F834157B
:10019800D2F81C14C3F84015D2F82014C3F844153B
:1001A800D2F82414C3F84815D2F82814C3F84C150B
:1001B800D2F82C14C3F85015D2F83014C3F85415DB
:1001C800D2F83414C3F86015D2F83814C3F864159B
:1001D800D2F83C14C3F86815D2F84014C3F86C156B
:1001E800D2F84424C3F87025424B1B68082B83D1EE
:1001F800444B1B683BB9454B454A1A603D4B1B684D
:10020800082B7FF479AF3F4B1B68002B7FF474AF4A
:10021800404BFB22C3F81825364B1B68082B7FF48C
:100228006BAF384B1B68002B7FF466AF3A490A68FE
:100238003A4B1B6803F00F0322F00F0213430B60C5
:100248002C4B1B68082B7FF457AF2E4B1B68002BD9
:100258007FF452AF324B4FF400721A60254B1B6883
:10026800082B7FF449AF274B1B68002B7FF444AF62
:100278004FF08043D3F8003413F0010F3FF43CAF44
:100288004FF080436FF00102C3F8002434E7254B98
:100298000122C3F804251A46D2F80034002BFBD0FB
:1002A8004FF010231222C3F800221E4AD2F800345D
:1002B800002BFBD04FF010231222C3F80422194A56
:1002C800D2F80034002BFBD0164B0022C3F80425CB
:1002D8001A46D2F80034002BFBD0BFF34F8F0649E3
:1002E800CA6802F4E062104B1343CB60BFF34F8F30
:1002F80000BFFDE73001001000ED00E00000002025
:100308000090D0033401001000C000408C5600401B
:100318004881030000F00040E40E0040580200103D
:100328004096024000E001400400FA05344935488F
:100338000A1A02D0072291438D46334933480A1AD4
:1003480006D00722914381F30988022282F3148898
:100358002F483049304A00F042F830483049314A95
:1003680000F03DF830483149314A00F038F831485A
:100378003149324A00F033F831483249324A00F004
:100388002EF832483249334A00F029F832483349C6
:10039800334A00F024F833483349002200F02AF8A1
:1003A80032483349002200F025F832483249091A08
:1003B800082902DB0022026041601F481F49884269
:1003C80005D00268043003B4904703BCF7E7002067
:1003D8008646EC4600200021284A9047FEE78842DE
:1003E80007D0521A05D0037801300B700131013A59
:1003F800F9D17047884202D002700130FAE770479D
:100408000000042000FF0320000004200000042056
:100418008469000000000020A000002034050000CE
:1004280034050000B858000084690000000000206E
:1004380000000020B8580000B8580000B858000064
:10044800B8580000B8580000B8580000B858000064
:10045800B858000077690000246A0000A004002052
:10046800A0040020A00000209C0400209C04002080
:10047800A0040020A0040020A0050020C106000060
:100488000A484FF0070188438546094880470948CC
:10049800094901600948016841F470010160BFF32E
:1004A8004F8FBFF36F8FFFF741BF0000000004209C
:1004B800F900000008ED00E00000000088ED00E011
:1004C800FEE7FEE7FEE7FEE7FEE7FEE7FEE7FEE7FC
:1004D800FEE7FEE7FEE7FEE7FEE7FEE7FEE7FEE7EC
:1004E800FEE7FEE7FEE7FEE7FEE7FEE7FEE7FEE7DC
:1004F800FEE7FEE7FEE7FEE7FEE7FEE7FEE7FEE7CC
:10050800FEE7FEE7FEE7FEE7FEE7FEE7FEE7FEE7BB
:10051800FEE7FEE7FEE7FEE7FEE7FEE7FEE7FEE7AB
:0C052800FEE7FEE7FEE7FEE7FEE700BF8F
:100534002DE9F04F87B001908D7805F00F0A0C7902
:1005440004F00F0991F803E00EF00F0E91F805C0C6
:100554000CF00F0C90781379D77807F00F075679C1
:1005640006F00F068DF80CA08DF80D902D098DF86E
:100574000E5024098DF80F408DF810E08DF811C04D
:1005840000F00F048DF8124003F00F048DF81340AF
:1005940000098DF814001B098DF815308DF81670BC
:1005A4008DF817600DF10C0C4FF0000EF046E34689
:1005B40041E006A800EB430000F80B8C00F80C8C1B
:1005C40000E01D460133DBB2052B1CD806A800EB66
:1005D400430010F80B4C06A800EB450010F80B0C78
:1005E4008442E6D006AE06EB430616F80C7C06AE53
:1005F40006EB450616F80C6CB742E2D8E2D1844209
:1006040038BF1D46DEE706AB03EB450333F80C3C6D
:10061400ACF800300BEB45030BF815A083F8019000
:100624009CF802A09CF803900EF1010E0CF1020C50
:10063400BEF1050F04D05FFA8EF56B1CDBB2C5E783
:100644000023019C237013780A7813430B709DF8E0
:100654000D309DF80C2002F00F029DF80E0042EAC6
:1006640000128A709DF80F2003F00F0343EA02136F
:100674000B71CB7823F00F039DF8102002F00F02CA
:100684001343CB704B7923F00F039DF8112002F034
:100694000F0213434B710123237007B0BDE8F08FA1
:1006A4000078C30905D010F0400F04D0C0F3401007
:1006B4007047002070470020704700002DE9F04F7C
:1006C400E1B02122002157A804F06FFD01F05EF88B
:1006D40062B66A4B0122C3F80823C3F804251A60E2
:1006E400674B4FF0FF325A6000229A6005221A606D
:1006F400032000F0A1FF6FF0070000F0DBFE00F024
:1007040021FF272000F026FF5E4800F08BFF4FF406
:10071400FA7000F089FE00F031FE48B15A4D4FF4F2
:10072400FA74284604F084FC204600F07DFEF8E7C5
:100734000546564804F07CFC4FF48072544917A8CF
:1007440004F00AFD534AA2F10804082117A812F87C
:10075400013D5940415C9442F9D14F4B19704F48C7
:1007640004F066FC4E4B1B88002B47D104224D49F4
:100774000DA804F0F1FCBDF8342045F2AA539A42C6
:1007840037D0474B1B88002B38D1474E444C474D3C
:10079400304604F04DFC08210EA801F0D7F904F00E
:1007A400CBFC208081B2284604F042FC2388002B35
:1007B400EED045F2AA52ADF83420ADF8363001F04F
:1007C400F1F804220DA9002001F014F9384804F0CE
:1007D4002FFC642000F028FEBFF34F8F3549CA6810
:1007E40002F4E062344B1343CB60BFF34F8F00BF7E
:1007F400FDE7BDF836202A4B1A80C2E7284E31881F
:100804002E4804F015FC1D4B01205860D3F8082530
:1008140033882B490864D1F84045D2B203FB02F374
:10082400A4B204FB03F42146264804F001FC20464C
:1008340003F004F9244B00221A703188012900F0D6
:10084400CF83022900F0C983032900F0078403221F
:100854001A701E4804F0ECFBFEE74FF0000BE7E3D0
:100864004FF0010BE4E31A4B1B68ADF85E31042230
:100874000DF5AF71504601F019FB7DE300D0004047
:1008840010E000E029417671B8580000D858000003
:10089400785B00002C590000CC0000203059000087
:1008A40004000020001100104459000068590000A1
:1008B4008059000000ED00E00400FA05985900009A
:1008C40000800040B0590000E0000020D059000032
:1008D400F00000204FF0FF354FF0A0434FF080624E
:1008E400C3F80825C34A01211164D2F84035A3F5A1
:1008F400B323A3F5F8731B1B002BF5DB4FF0A043C8
:100904004FF08062C3F80C25BBF1FF3F5AD0D3F8F7
:10091400103513F4801F40F0AE804FF0FF380127EC
:100924003E46B9F80010CBB2013BB3481A46002B3F
:10093400B8BFDA1DD210D3F1000C03F007030CF09A
:10094400070C58BFCCF10003C3F10703DBB24FF02F
:10095400010C0CFA03F310F802C043EA0C038354AD
:10096400A548037923F00F0301F00F010B43037132
:10097400837823F00F0306F00F021343837001F012
:10098400C9F9B5F1FF3F1DD0B8F1000F40F08B80DD
:100994009A4B1B788DF87430994B1B788DF8753011
:1009A4008DF876608DF87770964B1B788DF87830DB
:1009B400954B1B68CDF879301F220DF15E01284656
:1009C40001F074FAB9F80000904B1B68012B0CBFBE
:1009D40002230023012814BF184643F0010001F04C
:1009E4000FFB4FF0A0434FF08062C3F80825B9F81D
:1009F4000030012B5DD07F4A01211164D2F84035CB
:100A0400A3F5B423A3F5E2631B1B002BF5DB4FF026
:100A1400A0454FF08066C5F80C6501F043FB044621
:100A2400C5F8086500F0EAFCC5F80C65784BC3F816
:100A340000A0784BC3F800A0774BC3F800A0774B15
:100A4400C3F800A0764BC3F800A0764BC3F800A00F
:100A54006A4B83F800A06B4B83F800A06A4BC3F881
:100A640000A00126DFF8D88138E0012534E702250B
:100A740032E7032530E717A800F0C0FB9DF85C308F
:100A8400022B04D04FF0020801273E4649E728B163
:100A94009DF875609DF87470D04642E74FF00108E8
:100AA400474646463DE701225146284601F0FEF9F5
:100AB40088E7504A01211164D2F84035A3F5BE23DA
:100AC400A3F504731B1B002BA1DAF4E7534A136844
:100AD40001331360032E00F2E3800136771E38469B
:100AE40001F040FB05460028F0D0B0F1FF3F3AD0BA
:100AF400002F3DD00B9B002B00F0A480437E012BE4
:100B040060D0012F52D0022F57D0424A13680133CC
:100B140013602122514617A804F047FB01238DF8E6
:100B24005C30162229460DF15E0004F015FB1821F5
:100B340017A800F0B3FB2B88DBB2013BAA7D08F8B1
:100B44000320EA7D3849CA54297E384AD154697E43
:100B5400374AD154A97E374AD154D5F81B10364AA6
:100B640042F82310B6E72E4A136801331360B1E745
:100B7400274B01221A60042201460DF5AF7004F0E0
:100B8400EBFA062157A800F089FB204B1B68012BC8
:100B940007D0BDF85E2193429FD01C4BC3F800A040
:100BA4009BE7BDF85E31194A136096E7234B1B7926
:100BB40003F00F03012BA8D104E0204B1B791B0980
:100BC400012BA2D1174A1368013313602122514625
:100BD40017A804F0EAFA05238DF85C30162229469A
:100BE4000DF15E0004F0B8FA182117A800F056FBC6
:100BF400A1E700BF00800040A0000020EC0000201E
:100C0400CC000020F4000020E8000020F0000020C8
:100C1400D0000020C8000020E4000020D400002000
:100C2400D8000020DC000020C4000020AC0000201C
:100C3400A8000020C0000020B00000200800002010
:100C4400BC0000203A4A1368013313602122514644
:100C540017A804F0AAFA05238DF85C301622294659
:100C64000DF15E0004F078FA182117A800F016FBC5
:100C74002B88DBB2013BAA7D08F80320EA7D2D49CD
:100C8400CA54297E2C4AD154697E2C4AD154A97E57
:100C94002B4AD154D5F81B102A4A42F8231019E7DD
:100CA40001F046F801460622274804F055FA4FF0B1
:100CB400A0434FF08062C3F80825244A012111643F
:100CC400D2F840351B1BB3F52F4FF8D44FF0A04595
:100CD4004FF08066C5F80C654FF08057C5F808756D
:100CE4004FF00408C5F80885012000F0B1FBC5F8F1
:100CF4000C85C5F80C75C5F8086501F0C9FAC28CF5
:100D0400134B1A7001F0C4FA436B23FA08F3114A27
:100D14001360002502E00135042D1FD0284601F0A0
:100D240083FA0028F7DB0C4A137801331370F2E7D7
:100D3400E4000020C4000020AC000020A800002033
:100D4400C0000020B00000200A0000200080004005
:100D5400F4000020E8000020EC000020C04EB9F8A8
:100D64000010304604F064F9BE4B1B680493BE4B7C
:100D74001B680393BD4B1B680293BD4B1B68019317
:100D8400BC4B1B680093BC4B1B68BC4A1278BC4923
:100D94000968BC4804F04CF9B9F80010304604F076
:100DA40047F9B94F3B797979BA79F87901F00F05A8
:100DB400089500F00F0507951D0906951509059579
:100DC40003F00F05049502F00F05039502900192BC
:100DD4000091FA78B978AD4804F02AF9B9F800100E
:100DE400304604F025F9AA4804F022F9DFF8E88235
:100DF400A84D98F80010284604F01AF998F8011044
:100E0400284604F015F998F80210284604F010F961
:100E1400A14F384604F00CF903225146404604F031
:100E2400C4F9B9F80010304604F002F99B4804F004
:100E3400FFF8DFF8A88298F80010284604F0F8F8C4
:100E440098F80110284604F0F3F898F802102846A0
:100E540004F0EEF8384604F0EBF80322514640461D
:100E640004F0A3F9B9F80010304604F0E1F88C4816
:100E740004F0DEF8DFF8688298F80010284604F0E1
:100E8400D7F898F80110284604F0D2F898F8021020
:100E9400284604F0CDF8384604F0CAF80322514637
:100EA400404604F082F9B9F80010304604F0C0F866
:100EB4007C4804F0BDF8DFF82C8298F8001028462E
:100EC40004F0B6F898F80110284604F0B1F898F840
:100ED4000210284604F0ACF8384604F0A9F80322BE
:100EE4005146404604F061F9B9F80010304604F068
:100EF4009FF86D4804F09CF86C4E3168284604F065
:100F040097F87168284604F093F8B168284604F00D
:100F14008FF8384604F08CF80C225146304604F021
:100F240044F9634B1D785B78AB424CD1604B9B78A2
:100F3400AB424DD14FF0A0434FF08062C3F80C2573
:100F44004F4A1368013313605A4B187800F038FE87
:100F5400012000F09FFF4FF0FF3000F0A1FF564842
:100F640000F0D2FE06225146544804F01EF9B9F8A6
:100F74000030012B3FF477AC5148FFF791FB0B9005
:100F840000283FF4A7ACB9F800303F4DAA7902F02D
:100F94000F018B423FF469AD1009B3EB121F3FF40C
:100FA40066ADEA7902F00F029A423FF462AD1D4643
:100FB4008B4238BF5D1C834238BF01359A427FF6AD
:100FC4008BAC013588E401213E4804F031F8ADE7EB
:100FD40002213C4804F02CF8ACE70125354B1D7088
:100FE4002A46394804F024F844F6AF61374804F03F
:100FF4001FF800F0A1FE212200210EA804F0D5F86C
:1010040004238DF83830324C2388ADF83A3005216A
:101014000EA800F043F92388012B3FF41EAC022BE9
:101024003FF41EAC032B14BF4FF0FF3B4FF0020BF9
:101034004FF0A0434FF08062C3F80C254FF080526C
:10104400C3F80C25234A01231364D2F840450C4A03
:1010540013604FF0000ADFF8789075E70225BDE7CA
:10106400745A0000DC000020D8000020D4000020C6
:10107400E4000020C8000020D0000020EC00002084
:10108400F0000020805A000008000020D05A000020
:10109400205B0000285B00002C5B0000305B00003C
:1010A400405B0000485B0000545B0000B00000207F
:1010B400C4000020E000002035050000A00000204E
:1010C4000A0000205C5B0000045A0000305A000053
:1010D4000400002000800040AC000020A800002094
:1010E400BC000020C00000202DE9F0414FF0A043D7
:1010F400D3F8043513F4001F55D105464FF0A0432F
:10110400D3F8103513F4003F52D12E4B1B7803F063
:10111400FF08002B4FD168B94FF0A043D3F8103526
:1011240013F4801F4AD04FF0A0434FF40022C3F8B9
:101134000C2505E04FF0A0434FF40022C3F8082526
:101144004FF0A0434FF40012C3F808250A242746A1
:101154001E46384600F07CF9D6F8103513F4003FEB
:1011640003D1631E13F0FF04F3D14FF0A043D3F86F
:10117400103513F4003F0AD0002D0CBF01220222C7
:10118400104B1A70104B0722C3F800250DE00D4BCD
:1011940000221A704FF0A0434FF40012C3F80C253C
:1011A4004FF0040801E04FF001084046BDE8F0812B
:1011B4004FF00108F9E74FF00208F6E74FF0030893
:1011C400F3E700BF2900002000300040094B002253
:1011D400C3F800254FF0A0434FF40012C3F80C25C8
:1011E4001A46D2F8103513F4003FFAD1024B00220C
:1011F4001A7070470030004029000020002843D0B6
:1012040038B504460020FFF76FFF00283ED1204B7D
:10121400204AC3F844254022C3F848251E49C3F890
:101224003415C3F8382501221A614FF0A042D2F8D0
:10123400103513F4003FFAD1154BD3F818315BB9CC
:10124400134B01225A611A46D2F80431002BFBD009
:101254000F4B0022C3F804210D4AD2F81831002B99
:10126400FBD00B4B0022C3F81021C3F82021C3F894
:101274001821094D294631F8022B204603F06CFF52
:10128400FFF7A4FF288838BD002070470020FAE744
:101294000030004038010020F8000020F8B5002894
:1012A40053D00C4606464B1E9BB23D2B4FD8012013
:1012B400FFF71AFF054600284CD1274F384620F87F
:1012C400024B2246314603F047FF244BC3F84475D2
:1012D4000234C3F84845224AC3F83425C3F83845D4
:1012E40001221A611A464FF0A041D2F818310BBB03
:1012F400D1F8103513F4003FF7D1184B01225A618D
:101304001A46D2F80431002BFBD0144B0022C3F848
:1013140004211A46D2F81831002BFBD00F4B0022BF
:10132400C3F81021C3F82021C3F81821FFF74EFF9A
:1013340004250DE0094B0022C3F81021C3F8202135
:10134400C3F81821FFF742FF02E0012500E002255F
:101354002846F8BD0325FBE7380100200030004093
:10136400F800002010B50120FFF7BEFE10B10124E3
:10137400204610BD0446FFF729FFF9E710B51C4BC2
:101384000022C3F800254FF0A0410320C1F838071C
:10139400C1F83C27C1F840074FF48030C1F80C0570
:1013A4000E21C3F808150F21C3F810151021C3F836
:1013B4000C154FF00041C3F81415C3F86C154FF029
:1013C4008041C3F82415C3F85425C3F8C025094B3C
:1013D4001A70FFF7C7FF28B1064B03221A700124C5
:1013E400204610BD04464021034803F021FEF7E7E0
:1013F4000030004029000020785C000038B54FF030
:10140400A043D3F8103513F4801F0AD0054D4FF0D4
:10141400A0442846FFF7F2FED4F8103513F4801FD9
:10142400F7D138BDF8000020084B01221A64D3F824
:1014340040354FF47A5202FB0030044A0121116412
:10144400D2F840351B1A002BF9DD704700800040AC
:10145400074B01221A64D3F8403503EB0010044A09
:1014640001211164D2F840351B1A002BF9DD7047B5
:10147400008000400E4BD3F8103503F00F03033BFC
:101484000C2B10D8DFE803F01107090B0F0F0F0F17
:101494000F0F0F0F0D000320704704207047052025
:1014A400704701207047002070470220704700BF3A
:1014B4000010004010B40828A8BF08206FF02703CC
:1014C4009842B8BF184600F130031C4CC3F1200108
:1014D40010301B4ADA4004FA01F10A4324FA00F0FE
:1014E400024302F00100002150EA01021CD14FF036
:1014F400FF32A3F12004C3F1200002FA03F102FA3F
:1015040004F4214322FA00F0014302FA03F30B48E6
:101514000B4A22EA030230EA01010AD0B1FA81F14E
:10152400C1F11F0101F12003A3F130005DF8044B68
:101534007047B2FA82F3C3F11F03F5E71111FD01FD
:1015440000010010C0B2024BC3F80C05704700BF85
:101554000010004010B50446FFF78CFF01281DD091
:10156400831EDBB2032B4BD8272C30D8262C43D830
:10157400DFE804F035353535353535353535353F26
:101584003F3F3F3F3F3F3F3F3F3F3F3F3F3F3F3F67
:101594003F3F3F3F3F3F3F3F3F4433000A2C0AD980
:1015A4001A2C0ED804EB8404323C04F07F04174B4D
:1015B400C3F8084510BDAF221549164803F000FCD6
:1015C400F0E7B0221249144803F0FAFBEAE7BE221E
:1015D4000F49124803F0F4FBC8E71A2301E0A31CE7
:1015E4005B0003F07F03094AC2F80835C2F854458A
:1015F400E0E7E31C5B00F4E75023F2E70223F0E7A3
:10160400D8220349064803F0DBFBD3E7001000406F
:10161400A05C00000C5D00001C5D00002C5D00005F
:101624003C5D00000202034BC3F81C25000EC3F806
:10163400240570470010004070B504464B4D002649
:10164400C5F8FC6F0120FFF7EFFE0120C5F8FC0F81
:10165400FFF7EAFEC5F800624FF0FF33C5F8083320
:10166400012C0AD0A31EDBB2032B78D8023C032C36
:101674006ED8DFE804F020525B643C4C0F23C4F8BE
:1016840010353B4BC4F814357F23C4F8183540F2A9
:101694000223C4F83435374BC4F838350025C4F870
:1016A4003C554FF40073C4F850360B20FFF752FF3B
:1016B400C4F80C5570BD2D4B0322C3F8102500222D
:1016C400C3F81425294CD4F8143543F48473C4F8AE
:1016D4001435294BC4F8183540F20313C4F83435D3
:1016E40040F25B63C4F83835244BC4F83C3540F20F
:1016F4000123C4F850360025C4F82C550123C4F83E
:1017040030352520FFF726FFC4F80C551C4BC4F8D0
:101714001C358E23C4F82435CCE7144B0422C3F8BB
:1017240010254FF08072C3F81425CBE70F4B052228
:10173400C3F810254FF0C742C3F81425C2E70B4B7A
:101744000622C3F810254FF0C742C3F81425B9E7A1
:1017540040F255120B490C4803F032FBB2E740F259
:1017640083120849084803F02BFBA3E7001000404C
:101774000800000621100100FF0003025555550022
:1017840000D6BE89A05C00003C5D000030B472B697
:10179400002282F3118882F3138882F31488BFF342
:1017A4004F8FBFF36F8F714B5A600121704BC3F899
:1017B40040154FF080434FF0FF30C3F80803C3F8DF
:1017C4001025C3F87815C3F880254FF6FF7113016F
:1017D40003F18043C3F800190132092AF7D1002329
:1017E400644AC2F800354FF08042012151604FF045
:1017F400A0440621604803F5E07244F8221040F842
:1018040022100133202BF6D14FF0A0430022C3F85D
:1018140000270320C3F808070421C3F80C15C3F8F4
:1018240044270C21C3F84817C3F84C074FF4002190
:10183400C3F80C15C3F85027C3F854074FF400112C
:10184400C3F80C15C3F864074FF00071C3F80C1506
:10185400C3F868074FF08061C3F80C15C3F870072C
:101864004FF08051C3F80C15C3F878074FF080414E
:10187400C3F8081501234B60CB604FF0FF34C1F867
:101884000843C1F818254025C1F82855C1F800219E
:101894000B60C1F804218B6001F500414B6000BF6F
:1018A40000BF00BF00BFC1F80022C1F80843C1F85F
:1018B4000425C1F80805C1F810250B6001F5405155
:1018C4004B60C1F80843C1F84033C1F808250B60E8
:1018D4004FF08042D2F80031002BFBD0D2F8043113
:1018E400002BF7D0254B0022C3F800211A46D2F86A
:1018F4000031002BFBD00122204BC3F8482303F511
:10190400A0331F49C3F81815F839C3F81C15022170
:10191400C3F804151B49C3F82015A1F58071C3F859
:1019240024150421C3F804154FF08043C3F8381577
:101934005A6103F500530022C3F800254FF000411B
:10194400C3F80815C3F810151E21C3F80C15C3F805
:101954001425C3F86C250C49C3F82415C3F80023D7
:101964000822C3F8002530BC704700BF90ED00E0AA
:1019740000E0014000F001400003005000B00040CE
:101984000C0100401001004000705F0772B6044B68
:1019940001221A6030BF002383F31088704700BF10
:1019A40078010020124AD2F8003413F0010FFAD063
:1019B4000F4B0222C3F804251A46D2F8003413F060
:1019C400010FFAD00A4B0122C3F814251A46D2F8A3
:1019D400003413F0010FFAD0054B0022C3F804259C
:1019E4001A46D2F8003413F0010FFAD0704700BF42
:1019F40000E001402DE9F04383B0802838BF802007
:101A0400C0F18007974238BF1746002F46D088465A
:101A14000646244AD2F8003413F0010FFAD0214BC1
:101A24000122C3F804251A46D2F8003413F0010F3A
:101A3400FAD04FF0FF391B4C06F00300CDF80490A8
:101A4400C0F10405BD4228BF3D462A46414601ABCC
:101A5400184403F081FBD4F8083413F0010FFAD0D2
:101A6400B308203301994FF0102242F823100220CA
:101A7400FFF7EEFCA8442E447F1BDDD1094AD2F8BF
:101A8400003413F0010FFAD0064B0022C3F80425EA
:101A94001A46D2F8003413F0010FFAD003B0BDE8AF
:101AA400F08300BF00E0014082B00A2803BF0D2389
:101AB4008DF80430012300235A1C02A90B4403F8B7
:101AC400040C0A4B01A9C3F84415C3F84825BFF315
:101AD4005F8F0022C3F8202101229A601A46D2F8AF
:101AE4002031002BFBD002B0704700BF0020004023
:101AF40082B0094BC3F834D50822C3F83825002234
:101B0400C3F810210122DA621A46D2F81031002BF0
:101B1400FBD002B0704700BF0020004082B00A4BE7
:101B24000DF10702C3F834250122C3F8382500213A
:101B3400C3F810111A601A46D2F81031002BFBD0EA
:101B44009DF8070002B0704700200040F8B5064633
:101B54000D4621B1FFF7CCFF344600270FE05D228C
:101B64001549164803F02CF9F4E7344607E0B4426B
:101B7400FBD03946C0B2FFF797FF013C0135FFF7B0
:101B8400CDFFC3B22370082BF1D07F2BEFD00A2BEB
:101B94000AD00D2B08D0012DF1D93946C0B2FFF778
:101BA40083FF0134013DEAE70021C0B2FFF77CFF67
:101BB400002323703046F8BD405D0000905D0000B6
:101BC40070B5022800F29280064602F06BFF4A4C80
:101BD4000025C4F8D050C4F8D450C4F8D85084F8C0
:101BE400E26084F8E35094F80C3165F3C71384F889
:101BF4000C310622294604F5837003F0D6FA062236
:101C0400294604F5167003F0D0FA84F85E52C4F83D
:101C14001051C4F814514FF6FF76A4F82861A4F8C3
:101C24005061A4F87861A4F8A061A4F8C85104F53F
:101C3400E473C4F8D031A4F8D451A4F81851C4F80A
:101C44001C513C22294604F5187003F0AEFA2B4BC4
:101C54001D805D809D8000F07BFBA4F80852A4F8F1
:101C64000A623022294604F5057003F09EFA042224
:101C74004FF0FF3104F50D7003F097FA04224FF092
:101C8400FF3104F50E7003F090FA1C224FF000436C
:101C940019465B10013AFBD121F00101C943164CEE
:101CA400C4F84012D4F834320B40C4F83432D4F8B7
:101CB40038321940C4F83812002584F80C5284F8DC
:101CC4000D5200F051FC84F810520822294604F504
:101CD400117003F06AFA6FF00F03C4F84832A4F8E5
:101CE4004C52A4F84E52C4F8505270BD8C22044990
:101CF400044803F065F8F8E77C0100203004002074
:101D04009C5E0000E85E0000014BC3F8540270477B
:101D14007C01002010B50146044C062204F516701F
:101D240003F01AFA012384F85E3210BD7C0100200E
:101D340000487047D403002010B53D4C08223D49AB
:101D4400204603F075F909223B49204603F070F957
:101D540029223A49204603F06BF9032238492046E8
:101D640003F066F904223749204603F061F9202282
:101D74003549204603F05CF94FF4C85233492046F4
:101D840003F056F9324A3349204603F051F9BE2292
:101D94003149204603F04CF901223049204603F032
:101DA40047F94FF400422E49204603F041F900223E
:101DB4002C49204603F03CF94FF47A522A49204634
:101DC40003F036F910222949204603F031F90122A3
:101DD4002749204603F02CF903222649204603F024
:101DE40027F901222449204603F022F9022223493B
:101DF400204603F01DF901222149204603F018F979
:101E040002222049204603F013F901221E492046EC
:101E140003F00EF901221D49204603F009F90322BB
:101E24001B49204603F004F902F08CFE10BD00BFEC
:101E3400F05F0000D05F0000FC5F0000186000004D
:101E440038600000486000005C6000006C600000C6
:101E54000024F4007C60000090600000A06000009A
:101E6400B0600000D0600000EC6000000861000079
:101E740024610000386100005861000064610000C2
:101E84007C61000090610000A8610000B86100005E
:101E9400D0610000014BA3F84E0270477C01002082
:101EA400014BC3F8500270477C0100202DE9F04734
:101EB40003285FD80446202A28BF2022154600297B
:101EC40060D004F01F094FF0010808FA09F9484FDF
:101ED400D7F8483243EA0903C7F8483204EB8406CA
:101EE400F60006F22D102A46384403F035F906F5BB
:101EF40096703844437880F82130837880F8223013
:101F0400C37880F823300422002103F04EF9BB1972
:101F140004F0070208FA02F893F82C2148EA0208B0
:101F240083F82C811C460023A4F82831B7F8C83163
:101F34000133A7F8C831D7F81431002B51D02C4BFA
:101F440006F594761E44D3F8D031B34284BF284BAF
:101F5400C3F8D061264BD3F8342222EA0902C3F82D
:101F64003422D3F8382222EA0902C3F83822284658
:101F7400BDE8F0874FF4AF721E491F4802F020FFFE
:101F84000025F4E704EB8403194A02EBC303B3F816
:101F940028214FF6FF739A420FD1154B04F01F000E
:101FA40001248440D3F844221443C3F84442B3F8D0
:101FB4004C220132A3F84C22D9E740F269120D49B0
:101FC4000E4802F0FDFE04EB8403094A02EBC3034E
:101FD400B3F828214FF6FF739A4218BF0025C6D1E3
:101FE400DBE706F594733B44C7F81431A7E700BF59
:101FF4007C0100209C5E0000DC610000C8620000DF
:1020040038B50546234B0022C3F8CC21B3F8C831B8
:10201400032B09D8204B4FF6FF711A888A422ED021
:10202400283B13F1280FF8D115F0010F19D0194BE3
:10203400D3F814313BB3174AD2F8D0310433C2F881
:102044001031114602F5E474D1F8D02102F12803CD
:10205400C1F8D031A34202D2138D002BF4D102F087
:10206400F7FD01F067FC00F03BFB01F073F915F09C
:10207400020F03D0074B0022A3F8242138BD054AE0
:10208400C2F8CC31D0E740F2AF120449044802F060
:1020940097FED0E77C0100201C0300209C5E00001A
:1020A400EC6200002DE9F84302F0E0FD0A252A4E17
:1020B4004FF00109DFF8A8804F4604E000F010FB60
:1020C400012833D93D46D6F81C312B405C421C40D4
:1020D400022CF3D0082C0BD001F03CF930BB012CBE
:1020E4000BD072B6D6F81C312B4211D062B6EAE797
:1020F40001F020FC0128E5D818E0174BD3F81C3177
:1021040013F0200F14D0144BBE22A3F818210FE0B3
:10211400C8F84090D8F84045FFF738FCD6F89C3210
:10212400D6F8982213441B1BC6F89832002DCAD146
:10213400094BB3F8C831032B08D8084B00221A8086
:102144001C46204600F0CCFF0128FAD9024BD3F8F4
:102154002001BDE8F88300BF7C010020300400208A
:10216400008000402DE9F047032819D8044600EB0D
:102174008003294A02EBC303B3F828214FF6FF7307
:102184009A4216D104F01F04012303FA04F4224BEB
:10219400D3F844321C423AD01F4BD3F8500206E025
:1021A40040F27E221D491E4802F00AFE0020BDE8CE
:1021B400F08704F0070301259D40EDB2164F04EBB0
:1021C400840907EBC90999F82C316B4089F82C3143
:1021D40004EB8400C60006F59678B844404601F046
:1021E400FBFC99F82C315D4089F82C51002810DA59
:1021F40098F8013088F8213098F8023088F82230B5
:1022040098F8033088F8233006483044CFE700209C
:10221400CDE70020CBE700BF7C0100209C5E0000DE
:10222400DC610000A902002008B503280CD800EBEB
:102234008003144A02EBC303B3F828314FF6FF724C
:1022440093420AD018B208BD40F29D220E490F48AD
:1022540002F0B6FD4FF0FF30F5E700F01F00012259
:1022640002FA00F0074AD2F844221042EAD0054BA1
:10227400B3F8C831032B034B8CBFB3F98602B3F90F
:102284008A02E0E77C0100209C5E0000DC61000023
:1022940000487047DC03002030B40F4BCC1AC4F361
:1022A400C7040D78A3F5EC7300F13B0203F8325038
:1022B40003EBC2025470C0B20D7803EBC50383F87C
:1022C400D9010870033C937864F3010393704B883D
:1022D40001334B8030BC70475403002038B50446AA
:1022E400022821D8164A02EBC40393F8DA3103F02A
:1022F4000303DD1C02EBC302B2F8F231D3B1104B7D
:102304003B3413F8341003EBC404627803EBC100CC
:1023140080F8D9213B3203F832103B3503EBC50377
:102324005A88013A5A8038BD6C220649064802F0A0
:1023340047FDD7E770220349044802F041FDDEE778
:102344007C010020086300005C63000074630000EB
:102354002DE9F8433C4CFF2384F8D831012684F856
:10236400D9610025A4F8DA514FF0000365F30103A5
:1023740084F8DA310422294604F5EE7002F015FFE0
:1023840084F8E051022784F8E171A4F8E2514FF097
:10239400000365F3010384F8E2310422294604F5BD
:1023A400F27002F002FF84F8E861032684F8E96120
:1023B400A4F8EA514FF0000365F3010384F8EA310D
:1023C4000422294604F5F67002F0EFFE84F8D86181
:1023D40084F8E96184F8F15184F8F071A4F8F261A9
:1023E400042384F8F93184F8F831A4F8FA51052368
:1023F40084F8013284F80032A4F80252134C124FCC
:102404004FF0010907F5FC7816E005F13B0307EBF3
:10241400C3035A8869F38F025A803046FFF75EFF80
:1024240041463046FFF738FF14F8013C013B04F8FD
:10243400013C0135032D05D0AEB214F8013B002B4D
:10244400F7D0E2E7BDE8F8837C0100201C040020FB
:1024540010B504463B30174B03EBC003588862F3B6
:102464008F005880144B01221A5511F0800F07D1A8
:102474002046FFF733FF11492046FFF70DFF10BD3B
:10248400CBB20C4A012182F80D1203F08D03812B8B
:1024940007D02046FFF722FF09492046FFF7FCFE3C
:1024A400EDE72046FFF71AFF06492046FFF7F4FE42
:1024B400E5E700BF7C0100201C0400207403002019
:1024C4007C0300206C0300202DE9F041254BB3F878
:1024D4001851ADB2AD00ADB2B3F8FA31F3B1214E3B
:1024E40006F5F877A7F5F87896F8F9319CB206EB7B
:1024F400C303B3F8DA31C3F38D03A5EB83039BB2B3
:10250400B3F50E7F0AD92046FFF7E8FE3946204688
:10251400FFF7C2FEB8F8FA31002BE5D1114BB3F83E
:102524000232EBB10F4E06F5F877A7F5F87896F876
:1025340001329CB206EBC303B3F8DA31C3F38D0363
:10254400A5EB83039BB20C2B0AD92046FFF7C6FEEA
:1025540039462046FFF7A0FEB8F80232002BE6D138
:10256400BDE8F0817C01002010B5044C022200215A
:10257400204602F01AFEF823237010BD8A030020BF
:10258400F8B5D8B10446C37990F90720002A24DBB2
:10259400504B93F80E2283F80F22B3F8C831032B63
:1025A4000BD94C4B93F8103213F0800F05D1494BE3
:1025B40093F810325BB2012B74DDF8BD454B93F8F0
:1025C400E22003EBD20302F0070101228A4093F8D0
:1025D4000E120A4383F80E22DAE703F08E03822BED
:1025E40028D03C4B93F810325BB2002BE5D1A17993
:1025F40001F0070201239340364A02EBD10292F81C
:102604000E120B43DBB282F80E32E27902F08C0236
:10261400802A1FD02F4B93F8F9413B3403EBC404B9
:1026240003F5FC739C42B3D0A3F12007A7F5EC7526
:102634002E4621E0274B93F810325BB2002BD6DCF8
:1026440001224FF0FF31244802F0AFFD0020FFF7D4
:1026540097FFCCE794F8292013431E4A82F80E32E0
:10266400D8E7B6F8182192B26FF07F0180B2FFF775
:10267400EFFE1A4B9C428BD0E21BD00864783B34AB
:1026840005EBC40495F810325BB2002BE9DC06EBD1
:10269400921292F80E3200F00702134113F0010F68
:1026A400E7D0DEE7FF2A88D10A4B93F8104263B2E1
:1026B4002BB1013464B2074B83F810427DE7054B1C
:1026C400FF2283F81022FFF74FFF0020FFF758FF87
:1026D400EFE700BF7C0100208A0300207403002080
:1026E400B34B1B8843B140F2FE22934212D0B04B4D
:1026F40000221A80032070470023AE4A1360AE4ABA
:102704001380AE4A1380AE4A13705370A84B40F244
:10271400FE221A80AB4BD3F81C3113F0020F00F0E9
:10272400D9842DE9F04F8BB0BFF35F8FA54B6FF0C9
:10273400020203F58E7050E8001F01EA020140E82E
:102744000012002AF7D1BFF35F8FB3F81871BFB23C
:102754009B4A11785170002111700197B3F82C3203
:10276400FB1A032B11DDA0F58E73C3F81C12C3F8FA
:102774002812944BD3F8D4208E4B1B689A4261D014
:10278400904C04F1070B8B4E2BE08E4BD3F81C318D
:1027940013F0040FEDD08C4801F080F9E9E73425FB
:1027A40005FB02F56019B0F8049015F80BA001F0D0
:1027B40075F905F12A02D4F85432224404F516714D
:1027C40004F25E209847D4F8D03032689B1A042B68
:1027D40014D9D4F8D4303360D4F8D42033689A426E
:1027E40030D003F00302342101FB024191F806804A
:1027F400B8F1020FD3D901333360EDE7013232600F
:10280400BFF35F8F102304F58E7151E8002F42EA65
:10281400030241E80023002BF7D1BFF35F8F4A4640
:1028240051464046FFF714FE4F4507D0019B013B3C
:102834009945D1D1624B83F801A0CDE7604B83F871
:1028440000A0C9E75F4BB3F8FA51B3F802321D4454
:1028540001351FFA85FABAF1FF0F34D8594BB3F892
:102864000A32BB4264D3574BB3F8083253B9554BC1
:10287400A3F80872A3F80A72A3F88C72A3F88EA2C4
:10288400A3F890724F4BB3F80A32BB4222D9BAF183
:10289400020F1FD86FF00041BAF1020F94BF5144E8
:1028A4000231484AB2F80802431E484C34F8111069
:1028B4000B449BB2A2F80A32A2F88C32A2F88EA280
:1028C400A2F8900234E04FF45F724149414802F0AB
:1028D40077FAC3E73B4A92F8F9313B3302EBC3037F
:1028E40002F5FC7293420CD0A2F5FC7110465A8892
:1028F40067F38F025A805B783B3301EBC303834257
:10290400F5D1304A92F801323B3302EBC30302F5AE
:10291400007293420CD0A2F5007110465A8867F3F6
:102924008F025A805B783B3301EBC3038342F5D1BA
:10293400244BB3F8C831042B4ED0002B61D10020B6
:10294400BFF35F8F1F4B6FF0040203F58E7353E8E0
:10295400001F01EA020143E80012002AF7D1BFF385
:102964005F8F002840F0DB8102F0DEF902F01EFAEE
:10297400144B93F90C31002B05DB124BB3F8C8311F
:10298400002B40F0E8810F4BB3F80A32BB42C0F091
:102994000F83074B40F2FE221A800A4BD3F81C31F6
:1029A40013F0020F7FF4C0AE00200BB0BDE8F08F2F
:1029B400300400203C0400202604002024040020CD
:1029C400280400207C010020580200200463000039
:1029D40090630000E8630000B64B93F80C3283B9AF
:1029E400B44BB3F8FA3163B9B24B93F80D3243B137
:1029F400B04BB3F80A32BB4203D2AE4B012283F888
:102A04000C22AC4B93F8E33003F08D03812B1DD0E3
:102A1400A84BB3F80A32BB4205D9A74B5B7813F035
:102A2400400F40F07881A34A0023A2F82E32D2F856
:102A340028E202F508721C4602F118064FF0FF392D
:102A4400101D6FF00708A8EB000825E09B48FDF770
:102A540027FE0028DCD00224204602F065F9002875
:102A6400FAD0974B00221A8002209EE751F8043BCB
:102A7400043201E023EA0403B24208D2002BF5D069
:102A84005C421C4015682C42F4D1B2420CD34B4634
:102A940002464144032939D9BEF1000F38D011460A
:102AA40051F8043B874AE9E7B4FA84F1C1F11F0104
:102AB4008448131A9B0801EB4313DB439BB2A0F534
:102AC4000D72C2F83042A2F82E320123794AB2F8CC
:102AD4000A02B84240F29080002319461C467A4A02
:102AE4001288BA1A92B2172A00F29780022A03D9DE
:102AF400033A92B2022AFBD8744E3688324492B218
:102B0400022A88BF033A714E32808FE04FF0FF33C0
:102B1400684AD2F81C0202F5057202F124064FF04D
:102B2400FF3902F1040C6FF00708A8EB0C0816E05B
:102B340051F8043B0432B2420BD2002BF8D05C4271
:102B44001C4015682C4202D023EA0403F3E7B24286
:102B54000ED34B4662464144032940F24182002B86
:102B6400B4DC00283ED0114651F8043B554AE4E752
:102B7400B4FA84F6C6F11F065249531A9B0806EBB1
:102B840043131EB2A1F50D73C3F8304293F90C310F
:102B9400002B09DB002EC0F22382731C9BB2454A32
:102BA400A2F82E3201236DE2A1F5A87001F014F809
:102BB400B042EFDCEFF3108872B6BFF35F8F02F020
:102BC400F5F801280BD03B4B93F80C216FF3C71297
:102BD40083F80C21BFF35F8F88F31088DAE74FF096
:102BE400FF36F7E7334AB2F8C821032A7FF66EAFFF
:102BF400002BBFF66BAFF8E1002B40F049820021B7
:102C04000C466CE7002319461C4668E74FF6FF7430
:102C140065E7002319461C4661E72D4AA2FB0752CB
:102C2400520802EB4202BA1A284E3280264A178012
:102C3400264A16881F4A92F8E220B24209D01D4A59
:102C4400D2F81C2112F0040F17D0012F5AD0002003
:102C540076E6002B08DB4FF6FF7400F0F5FEA04289
:102C64008CBF002001206BE601FB04F4C1EB14418E
:102C74008CB2002CF1D1002062E607F1010CBCF10A
:102C8400030F08D807EB870E0A4A02EBCE02B2F80C
:102C94002821002A39D0074A02EBC60696F8DA2121
:102CA40012F0030F16D0002B37D001FB04F4240CD0
:102CB400DFE700BF7C01002028040020D4030020AB
:102CC40030040020B0030020240400202604002047
:102CD400ABAAAAAA84450ADAB74BB3F80832FB1A9E
:102CE4009BB2032B14D86FEA83339CB2B5E7002B55
:102CF400BFD10AF101054FF48074B4FBF5F424024A
:102D0400A4B2B6E74FF6FF74A7E74FF6FF74A4E743
:102D140042F6EA54A1E7002012E6002010E6A3F5EB
:102D24008E7393F90C31002BFFF61EAEEFF3108374
:102D340072B6BFF35F8FA04AD2F8102122B1BFF35D
:102D44005F8F83F310880FE69B49D1F81421043276
:102D5400C1F81021F3E7984B93F80C2142F040029C
:102D640083F80C21D3F81431EBB1944B0293D3F8CC
:102D7400EC20E4339A4278D2A3F5E473B3F92E320B
:102D8400002B17DD013B03EB83038D4E06EBC306DB
:102D940001254FF000098A4CA4F5947AA4F1440B60
:102DA40004F1A00871E040F24B228649864802F003
:102DB40007F8DAE792F82530537192F826309371C8
:102DC40092F82730D371043203927B4901F5E47001
:102DD400D1F8D02102F12803C1F8D031834204D2C2
:102DE400138D002BF4D1022500E00225774C24F04A
:102DF40001046B1C03EBD3735B109B00C3F1120340
:102E040015F0010500F0CB809E1C0333A26844F842
:102E14002320F31E6FEA03536FEAD3432381A6F101
:102E2400160240F2FE7303EA420343F42843A4F873
:102E34005630BFF35F8FBFF36F8F212202A95F4823
:102E440002F034FD002D00F0AF800136604B44F8F1
:102E540026304FF6D00323814AF6D873A4F85630AF
:102E6400BFF35F8FBFF36F8F3FE0534BB3F92E3245
:102E7400002B87DC00268BE7212202A9584602F0AA
:102E840015FD00252834444528D022884FF6FF73C9
:102E94009A42F7D0A642F5D200F0D6FD10F0070F03
:102EA40008BFCAF81441BAF8183110F4004FE9D138
:102EB40009F1010994F82530637194F82630A3715F
:102EC40094F82730E371691C0AAB03EB8503221DD8
:102ED40043F8202C072DCFD00D46D3E7B9F1000FCE
:102EE40001D1002E37D0002D49D1334B93F80C314A
:102EF40013F0400F3FF447AD00F0A6FD0146EFF399
:102F0400108072B6BFF35F8F2B4B93F80C3113F024
:102F1400400F1BD0284B93F80C2161F3050262F09B
:102F24007F0283F80C21D3F8102103F59473D31A8C
:102F34009F2B0BD8204AD2F81031043BD2F8CC2175
:102F44009A4203D01C4B0022C3F81021BFF35F8FB9
:102F540080F3108817E5184BD3F8143193F8252023
:102F64005A7193F826209A7193F82720DA710AAAE5
:102F740002EB8502043342F8203C0135B3E7082D07
:102F84000ADD87221349144801F01AFF212202A9FD
:102F94000A4802F08BFCA8E7072DF7DC26E7A268B5
:102FA40044F823201E4634E70C4B44F8263050E7FF
:102FB400FFF78AFAEDE400BF7C01002060020020E4
:102FC400A402002090630000F86300002B0000209E
:102FD40081EA04011C6400007464000081EA0301B6
:102FE4003D4BB3F8C831032B4AD93B4B4FF4004255
:102FF400A3F82E22B3F80A028742FFF403AE364B3D
:10300400B3F8C811C1EB813189B2B3F8026201236C
:103014000136314AB2F92E2212F5004F27D082EA46
:10302400E27CACEBE27C1FFA8CFC0CF1FF3C4FEA37
:103034005C1CDFF8A4E09EF8F9213B320EEBC202DF
:103044000EF5FC7E724512D04FEA8C0CAEF5FC787E
:10305400F14602EB0C0EDEF804E014EA0E0F08BF92
:10306400013652783B3208EBC2024A45F1D1012EB7
:103074007FF6CCAD4FF6FF74B4FBF6F4A4B22EE5A4
:103084004FF0FF33144AB2F80A028742FFF4C1AD8D
:10309400114AB2F8C811C1EB813189B2B2F80262A7
:1030A400002BB5DA0C4AB2F8FA21023206EBA2067A
:1030B40034460F2E28BF0F24084A32F81440AAEBD6
:1030C4000602012A7FF60BADAAEB0606B4FBF6F462
:1030D400A4B204E5002070477C010020D464000001
:1030E4002DE9F04389B00746038893B140F61112E5
:1030F40093420AD18F490A68531E0B60002A0BDCE5
:103104008D4BB3F81821A3F8882200233B800320B9
:10311400C3E00323874A136087484FF6FF71854C49
:1031240003EB830200EBC202B2F828218A424FD09B
:1031340003EB8303DB0003F596737F4A1344EFF339
:10314400108172B6BFF35F8FD2F810219A4245D036
:10315400BFF35F8F81F31088EFF3108272B6BFF371
:103164005F8F754BB3F92E32002BB8BF5B429BB215
:10317400013B704909688B4235D0BFF35F8F82F3FE
:1031840010886C4B1A68531C02EB82056D0005EB2A
:1031940053154C35684901EB8505DC4304F01F00E9
:1031A4004FF00044044102EB8202520002EB53123E
:1031B40001EB8202D2F82C21144023F01F02032ACF
:1031C40067D800215C4E4FF6FF78DFF868916CE019
:1031D4002268531E2360002AA2DC91E7564B00228A
:1031E400C3F81021B4E7544B0021A3F82E12C4E70E
:1031F40055F8044B2032032A57D9002949D04D4BA6
:103204001B6803EB83034D4C04EBC30408297CDCEB
:1032140007297FDC4A4D25F001054B1C03EBD373D2
:103224005B109B00C3F1120311F0010678D003F187
:1032340002080333AA6845F82320A8F103036FEAC0
:1032440003536FEAD3432B81A8F1160340F2FE72B5
:1032540002EA430343F42843A5F85630BFF35F8FD3
:10326400BFF36F8F24226946204602F01FFB002E15
:103274005BD008F10108334B45F828304FF6D003F2
:103284002B814AF6D873A5F85630BFF35F8FBFF38E
:103294006F8F40F611133B80012009B0BDE8F08325
:1032A4000A46631E1C4011460022002CA0D0002CAC
:1032B4000EBF631E94FAA4F3B3FA83F31344032BEF
:1032C4009BD803EB830206EBC202B2F828214245E5
:1032D400E6D04A1C08A800EB810003EB830306EB4D
:1032E400C30303F5967340F8203C0729D9D1D9F8D4
:1032F400000000EB800006EBC0002422694600F5C4
:10330400967002F0D3FA0022CBE787220E490F48C9
:1033140001F056FD24226946204602F0C7FAB8E7B8
:10332400AA6845F82320984687E7094B45F82830D2
:10333400A4E700BF200400207C010020A802002094
:103344002B00002081EA04011C6400007464000066
:1033540081EA03012DE9F04389B0C04B5B8840F654
:103364003B0293424BD000F2A080B3F5E46F00F02F
:103374008380B3F5E96F78D1B94BB3F8C831032B27
:1033840000F2A382B74B1A6802F10800B4499368AB
:10339400D1F848422343C1F84832D1F844120B40D3
:1033A40016D05940AE4DC5F84412AF4CD9B2615C49
:1033B400C3F30746A65D3144C3F30726A65D314433
:1033C4001B0EE35C0B44B5F84C12CB1AA5F84C3237
:1033D400D37903F00F03042B00F0B480A04BD3F88F
:1033E4001031834200F0C9809E4B1B685A7A83F8DF
:1033F40029209A7A83F82A20DA7A83F82B20ADF1EF
:1034040004070025974EDFF86C82A8F5967930689A
:10341400083000F0E1FB041EC0F2E58004EB8403F5
:103424008F4A02EBC303B3F828214FF6FF739A4285
:1034340000F02781306804EB8404836858F8342052
:1034440053408360013509EBC40404F5987447F8CC
:10345400044F082DDBD1202269460C3002F026FAF5
:103464007E4B40F63B025A803EE2002B40F0408205
:103474007A4B4FF4E4625A80794BD3F81C3113F041
:10348400100F00F03A82BFF35F8F754B6FF010029C
:1034940003F58E7353E8001F01EA020143E80012AA
:1034A400002AF7D1BFF35F8F07E040F66C02934226
:1034B4003DD040F67E02934231D1694BD3F8D820F7
:1034C4006A4B1B689A42D3D0654AD2F8D83003F0CD
:1034D4000303342000FB0320624A10608279022A2D
:1034E40000F2F381C37903F08C02802A0AD013F02E
:1034F400800F3FF441AF5A4B93F810325BB2002B6C
:103504007FF43AAFFFF73CF8554BB3F8C831032BBF
:1035140000F2DB81514B4FF4E9625A80E4E140F65A
:103524006102934240F0E481514B00221A805048DA
:10353400FFF7D6FD012800F2C581484B40F66C0226
:103544005A80D1E1464991F8484292F8293023EA59
:10355400040391F844128B433FF440AF5940404C6C
:1035640084F844124049CB5CB4F84C120B44A4F8E0
:103574004C329388A4F8D43130E7394BD3F8CC11CA
:10358400E1B101F1040C0346624620301F685E6815
:103594009D68DC68176056609560D4601033103203
:1035A4008342F3D11B6813604B7981F825308B7902
:1035B40081F82630CB7981F827306146EFF3108209
:1035C40072B6BFF35F8F264BD3F81001254B1B68EF
:1035D4000833984204BF224BC3F81011BFF35F8F26
:1035E40082F3108800E7EFF3108172B6BFF35F8FA8
:1035F4001B4AD2F8D430D2F8D8209B1A012B3BD0E6
:10360400BFF35F8F81F31088154AB2F8C8311549AA
:1036140009688888B2F84E22904226BF104AB2F850
:103624004C2200221344032B40F24F810C4B042202
:10363400A3F8C8218A88A3F88622EFF3108272B611
:10364400BFF35F8F0021C3F81011BFF35F8F82F3C4
:103654001088024B40F661025A8045E13004002094
:103664007C0100202C0400209C5D00003C04002010
:1036740038040020A8020020A14B0022C3F8102126
:10368400BEE7A04B1E68B1889D4A04EB840302EB9D
:10369400C303A3F82811B388A2F8D431002D47D06E
:1036A4000C36A846082D00F3AB80072D00F3AD803F
:1036B400954D25F0010508F1010303EBD3735B106D
:1036C4009B00C3F1120318F0010800F0A4809F1CB2
:1036D4000333AA6845F82320FB1E6FEA03536FEAFD
:1036E400D3432B81A7F1160240F2FE7303EA42038F
:1036F40043F42843A5F85630BFF35F8FBFF36F8FB1
:1037040020226946304602F0D1F8B8F1000F00F0EB
:10371400878001377D4B45F827304FF6D0032B8146
:103724004AF6D873A5F85630BFF35F8FBFF36F8F97
:10373400EFF3108172B6BFF35F8F714AD2F8103184
:103744009B1ACF2B04D96F4B1B680833C2F8103176
:10375400BFF35F8F81F31088EFF3108572B6BFF368
:103764005F8F674BB3F92E32002BB8BF5B429BB21D
:10377400013BA34258D0BFF35F8F85F3108804EB5D
:1037840084034FEAC30C624A02EBC3085D4B1B6817
:1037940003F10805474603F1280E3E462868696888
:1037A400AA68EB680FC6103537467545F5D1286809
:1037B40030605349B1F8C821013292B2A1F8C8214E
:1037C4000CF594730B44C1F81431D1F8CC118B422D
:1037D40035D063094A4D8C3305EB830304F01F0194
:1037E400012202FA01F15A6822EA01025A60042213
:1037F400414605F50E7000F035F9A5F83C0203E7E3
:1038040087224449444801F0DBFA202269463046C5
:1038140002F04CF88CE7AA6845F823201F465BE7C2
:103824003E4B45F8273078E74FF4FC623C493D486D
:1038340001F0C6FA324B0022A3F82E229BE7042A99
:103844003BD02F4A02F594754FF6FF70D2F8CC3175
:10385400A3F12801C2F8CC11AB4203D933F8283CB8
:103864008342F3D1304B9942B3D2A3F5947303F559
:10387400D072C3F8CC2103F5E4734FF6FF75A2F5BB
:10388400D07202F5947033F8283CAB4207D0D2F8DA
:10389400CC31A3F12801C2F8CC118342F3D8184BE0
:1038A40003F59472D3F8CC31934292D240F61802C5
:1038B4001B491E4801F084FA8BE7114B0022C3F820
:1038C400CC2186E70020FEF75BFE0D4BD3F8D82011
:1038D4000132C3F8D820B3F884220132A3F8842239
:1038E400134B40F67E025A80012009B0BDE8F083F4
:1038F4000F4B00225A800320F7E70020F5E700BFB2
:103904007C0100202C0400202B00002081EA04010B
:10391400A80200201C6400007464000081EA030112
:103924009063000090640000A4020020B4640000CE
:10393400300400203E4B9B8843B140F62D12934245
:1039440017D03B4B00229A8003207047394B012249
:103954001A64D3F84035384A03F10043013BC2F8F6
:1039640020314FF6FF73A2F82431314B40F62D126B
:103974009A80314BD3F81C3113F0080F56D0BFF3A3
:103984005F8F2D4B6FF0080203F58E7050E8001F17
:1039940001EA020140E80012002AF7D1BFF35F8F69
:1039A400244A01211164D2F84025B3F818319BB29E
:1039B400BD2B06D8A0F58E73D3F82031D31A002B73
:1039C4001BDB10B5BFF35F8F1B4B202203F58E73F7
:1039D40053E8001F41EA020143E80012002AF7D12C
:1039E400BFF35F8F0224204601F09EF90028FAD02D
:1039F4000F4B00229A80022010BD0F49B1F81831F4
:103A04009BB2B1F824119942AFD00B49B1F81831E7
:103A1400A1F82431B1F818319BB2C3F1BE034FF4BD
:103A2400C85000FB0322C1F820219EE70020704704
:103A340030040020008000407C010020014B18600D
:103A4400704700BF88000020054B186880EA80009A
:103A540080EAD03080EA4040186080B2704700BFEE
:103A64008800002070B422F003054319984211D253
:103A740004460D440020084E11F8012B237823EA54
:103A8400020304F8013BF35C184480B28D42F3D185
:103A940070BC70470020FBE79C5D000038B504460D
:103AA4004A4B984217D0C37990F90720002A12DBB9
:103AB4008279022A1FD803F00F03032B1CD0022B98
:103AC40039D0E37913F08D0F05D194F829103B32E6
:103AD4003F4B03F832103F4BD3F8283233B13D4B00
:103AE4000022C3F82822A288A3F82C22394BD3F849
:103AF4001C32002B3ED138BD364BD3F828324BB99B
:103B040090F82910334B83F8241283F820120121F2
:103B1400C3F828122F4BD3F84052D3F8240228407C
:103B2400C3F82402D3F820122940C3F82012A18834
:103B3400A3F82C12C5E7274BD3F81C324BB990F8E5
:103B44002910244B83F8181283F814120121C3F8A6
:103B54001C12204BD3F84052D3F818022840C3F863
:103B64001802D3F814122940C3F81412A188A3F838
:103B74002C12A6E704F1080000F02EF8002817DB49
:103B8400012383404009134A02EB8002D2F8182231
:103B94001A420DD00F49843001EB800022EA03025F
:103BA4008260426822EA03034360A388A1F82C32AE
:103BB400084B0022C3F81C22D3F81832002B9AD0E9
:103BC400044B0122C3F81C2295E700BF58020020D1
:103BD400800100207C010020036813B94FF0FF30FE
:103BE4007047002B0EBF013B93FAA3F3B3FA83F3A0
:103BF400042B34BF18464FF0FF3070471C4B012292
:103C04001A64D3F840251B4B9B68A3F5A073D21A02
:103C1400002A1CDB164B0122DA64D3F84C2502F18E
:103C24000A02C3F84C254FF40022C3F80423124AB5
:103C3400B2F87C320133A2F87C320E4B93F8503048
:103C4400002B18BF0C230B4A82F850307047084AE7
:103C5400C2F84C350023C2F84C31084B4FF4807144
:103C6400C3F880114FF40023C2F80433E5E700BF22
:103C740000800040400400207C01002000E100E0BE
:103C840038B5C14B93F850300C2B00F0C281BF4BB8
:103C9400D3F804312BB1BD4BD3F8043313F0020F26
:103CA40032D1BA4A4FF0FF33C2F80833B84B4FF45D
:103CB4004021C3F80815A3F5B83301211964D3F8DA
:103CC4004035B448D0F894120B44AF494C6D1B1BDB
:103CD400C0F8943200234B65D2F80435991E5B7802
:103CE4002C2B49D0AB4AB2F86C320133A2F86C32B7
:103CF4000123A94AD364D2F84C3503F10A03C2F86C
:103D04004C350023CB7038BDA04B0222C3F80823E6
:103D1400D3F80405421C194613782BB9D1F8503551
:103D240003F00F03032BF7D04378DBB22C2B0FD017
:103D3400984AB2F86C320133A2F86C320123964AE5
:103D4400D364D2F84C3503F10A03C2F84C35DAE7F0
:103D5400914BD3F8482502F56662C3F84C2500223E
:103D6400C3F84C218D4A4FF48071C2F880114FF48E
:103D74000022C3F80423C6E7D2F8003413F0010F7D
:103D8400B0D0844AB2F86A320133A2F86A32824B64
:103D9400D3F848357C4A92F85020002A6FD17A4AE9
:103DA40003F5BC5353600023D36013614FF42473B1
:103DB400936140F2AE435361102382F850308A88F5
:103DC400744BA3F81821734AB2F818319BB2B2F8B5
:103DD4000A229A4200F2E68000246B4A536892F861
:103DE4005100012800F0F480674A52699B1A664A20
:103DF4009360684AD2F8D030D2F8D8209B1A032BAB
:103E040000F2EC80634BD3F8D4200132C3F8D42001
:103E1400B3F8C831042B03D008315E4BC3F810113A
:103E24005C4AB2F862320133A2F86232002C00F02C
:103E3400ED80584AB2F864320133A2F864320228A1
:103E440000F0DF80504B002283F8502083F851208B
:103E5400EFF3108172B6BFF35F8F4F4B0122DA6428
:103E6400D3F84C2502F10A02C3F84C25BFF35F8F47
:103E740081F310884FF40022C3F8042343E7454A32
:103E8400B2F8182192B28888904208D0414AB2F818
:103E94007E020130A2F87E028888A2F818013A4A0C
:103EA4001068181A4FF4E5735361D3681A46002B4F
:103EB400B8BFDA1C9210002AB8BF524280EAE074FC
:103EC400A4EBE074A242B8BF22460A32B2F5E57F01
:103ED40084BF2D4C62612C4C626902F520726261D0
:103EE4001D46002BB8BFDD1D6268A2EBE502264C1F
:103EF40062609C1C48BF0334A3EBA4030344224820
:103F0400C36083EAE370A0EBE370B0F52A7F0ED9B7
:103F1400204BB3F866220132A3F86622B3F8642278
:103F24000132A3F86422B3F81831012455E7184686
:103F3400002BB8BFD81D02EBE002134842600269AF
:103F44001344174A9A42B8BF1A4647F6FF74A2426E
:103F5400A8BF2246026113F11F0F11DB1346002A8A
:103F6400B8BF02F11F035A11B3F5C46F064B28BF43
:103F740030229A61044A936903F52473936122E71A
:103F840000228261F6E700BF4004002000100040D8
:103F940000F001407C0100200080004000E100E0CE
:103FA4000080FFFF284B93F85100022848D0CB79BA
:103FB40013F0200F10D0254B93F90C31002B01DBAB
:103FC40000240AE7204B012283F851205B68002477
:103FD4001D4A9269012009E70024FEE61B4BB3F851
:103FE400C831032B06D8194AB2F880320133A2F83B
:103FF40080321BE7154AB2F882320133A2F88232CA
:1040040014E7114B0C2283F8502021E7FFF7F6FD4B
:1040140079E60F4B4FF0FF32C3F8082303F5E04372
:1040240001221A64D3F840350849D1F89422134484
:10403400054A506D1B1AC1F894320023536562E699
:10404400014B5B680024CFE6400400207C01002083
:104054000010004008B5084B1B6853B1074B012200
:104064001A64D3F84025064BC3F89C22024B002265
:104074001A60FFF705FE08BD7801002000800040AB
:104084007C01002006480078874400BF4DF804ED09
:1040940000F0B2F85DF804EB00F0ECBC00F0ACB852
:1040A4009004002010B54E4BD3F80431002B74D08B
:1040B4004B4BD3F8042382F00202C2F34002484B74
:1040C4004FF0FF31C3F8081346494FF44020C1F8BC
:1040D4000805D3F8503503F00F03042B02D0404BEE
:1040E40001211961404B0221C3F880113F4B5B6DE4
:1040F40013F0010F0FD03E4B01211964D3F8403562
:104104003C48D0F894120B4438494C6D1B1BC0F842
:10411400943200234B65354B93F85030002B3BD041
:10412400002A3CD1334AB2F86E320133A2F86E321F
:104134002E4A53690A33536140F21252934240D9D2
:104144002C4BB3F868220132A3F86822B3F8642236
:104154000132A3F86422254B93F85130022B2BD063
:10416400224B002283F8502083F85120EFF3108172
:1041740072B6BFF35F8F1E4B0122DA64D3F84C256D
:1041840002F10A02C3F84C25BFF35F8F81F3108854
:104194004FF40022C3F8042310BD00228FE7104B14
:1041A400D3F804355B782C2BC2D1124AB2F87032A2
:1041B4000133A2F87032BBE70C4B0C2283F8502079
:1041C400D4E70A494A6891F85110012904BF074B02
:1041D4009B69D31A054A9360FFF710FDDCE700BF23
:1041E4000010004000F0014000E100E04004002025
:1041F400008000407C01002008B5084B1B6853B1C7
:10420400074B01221A64D3F84025064BC3F89C22BD
:10421400024B00221A60FFF745FF08BD7801002019
:10422400008000407C010020F8B5504B4FF4002280
:10423400C3F808234E4B93F85130022B23D04C4A39
:1042440092F85020002A00F06F83002B00F02D8399
:10425400464BD3F84C1501F5A071C3F84C15002258
:10426400C3F84C2103F5B833424AC3F8A825424A9F
:10427400C3F8AC254FF40022C3F8042501243B4ABB
:104284002046002555E03D4BB3F81821A3F88A22B7
:10429400BFF35F8F012203F58E7353E8001F41EAD9
:1042A400020143E80012002AF7D1BFF35F8F3EE01A
:1042B4002C461064D2F840355B1A002BF8DB2E4BE9
:1042C400D3F8503503F00F03012B0ED02C4B4FF4D1
:1042D4000022C3F80825002C00F03183274AB2F8E5
:1042E40074320133A2F8743221E3254B4FF40022D7
:1042F400C3F8082523E302F57A520446426082603B
:10430400FFF77CFC94F85030002B40F07183BFF32E
:104314005F8F1A4B082203F58E7353E8001F41EA9E
:10432400020143E80012002AF7D1BFF35F8FF8BD02
:104334002C461064D2F840355B1A002BF8DB0E4B88
:10434400D3F8503503F00F03092B1BD00C4B4FF45B
:104354000022C3F80825DCB10122A3F5F0331A606A
:1043640003F5E0431A64D3F8401511E000800040DF
:10437400400400204C810040001000407C010020DB
:1043840000F00140C24B4FF40022C3F8082500247A
:10439400C04B03F11E00C04AC2F804052C22DA7790
:1043A40041F0010159652CB1BC4AB2F876320133AF
:1043B400A2F87632B94AB2F8183101339BB2A2F8A6
:1043C400E030002182F8E310032B1ED803EB8302B4
:1043D400B24901EBC202B2F828212AB991F8E320CC
:1043E40042F0200281F8E3205A1C032A0DD802EB84
:1043F4008202AA4901EBC202B2F828212AB991F833
:10440400E32042F0400281F8E320A44AB2F8C82134
:10441400042A00F0FB80A148B0F8D411591A89B2DB
:10442400B0F84E0298429EBF9C48B0F84C02121855
:10443400C2F104021A2A28BF1A229948825C92B255
:104444008A4208D9954AB2F80A229A421ED8934A57
:10445400B2F8FA21D2B9914AB2F83C0201460628D0
:1044640028BF062192F80C218E4C615C02F03F02B9
:1044740091428CBF02220322002800F0DE8087498B
:1044840091F8E30062F3030081F8E300834AB2F891
:104494004E229A421CD8814BB3F84C32C3B17F4BA5
:1044A40093F8E33003F08D02812A11D003F08E03D8
:1044B400822B0DD0794BB3F86032002B40F0C680CC
:1044C400764B93F8E320042161F3030283F8E3209D
:1044D4000023754E1946754A30461C46042500BF14
:1044E40043EA010350F8041B002C1CBF54F8047B5E
:1044F400794042F8041B043DF2DC04354FEAC5055B
:104504004FF0FF3707FA05F721EA070143EA0103F1
:10451400346BB6F94E118AB202F5FF437F339BB276
:1045240047F6FE70834200F2D980C943A6F1E00346
:1045340093F90C31002BC0F2C78001EB81015C4C74
:1045440004EBC104554AB2F818310133A2F82C32F5
:10455400584BE31A9F2B08D894F82130637094F8D1
:104564002230A37094F82330E3704C4B93F90C3150
:10457400002BC0F2CC80002C00F0C2800026314613
:104584004D4A234630463446212500BF44EA0104FF
:1045940053F8041B00281CBF50F8047B794042F8F0
:1045A400041B043DF2DC04354FEAC5054FF0FF3728
:1045B40007FA05F721EA070144EA0104374B93F8A7
:1045C4000C2166F3861283F80C21344B93F8E32014
:1045D40002F08F03032B00F0478100F2BC8012F03D
:1045E4008D0F00F043812D4B93F8E33003F00F035C
:1045F400042B00F03D810F2B00F03C8140F255620A
:104604002E492F4800F0DCFB2E4AAAE0234991F8FA
:10461400E32062F07F026FF3030281F8E32091F854
:104624000C22002A3FF432AF0A4691F8E31001202D
:1046340060F3030182F8E31028E7184A92F8E310C4
:10464400022060F3030182F8E3101FE7134AB2F873
:10465400FA21002A3FF43CAF104AB2F92E2212F597
:10466400004F0CD013F0010F3FF432AF0B4B93F813
:10467400E320042161F3030283F8E32028E7074BD6
:1046840093F8E320042161F3030283F8E3201FE796
:1046940000F0014040040020001000407C01002094
:1046A400EC660000086700005C0200206004002043
:1046B400A8020020A402002064040020F464000086
:1046C4003C5D0000600200204B09321D52F82300BB
:1046D400D2F84C3118427FF435AF2EE700297FF72A
:1046E40037AF531E1BB203EB8303DB0003F5967352
:1046F4007C4A9C18B2F818310133A2F82C3227E70F
:1047040040F2FB527849794800F05AFB36E7002220
:1047140010467749774D2346212400BF42EA000220
:1047240055F8040B002B1CBF53F8046B704041F880
:10473400040B043CF2DC04344FEAC4044FF0FF36AB
:1047440006FA04F620EA060042EA0002002A7FF490
:104754003CAF002623E083F08003032B3FF643AFF6
:10476400654A0023184665491C46012543EA0003AF
:1047740052F8040B002C1CBF54F8046B704041F831
:10478400040B043DF2DC04354FEAC5054FF0FF3657
:1047940006FA05F620EA060043EA0003554E514B9B
:1047A40093F85E3243B14F4BD3F85802C3F8060175
:1047B400B3F85C22A3F80A2100231946504A514851
:1047C4001C46062543EA010350F8041B002C1CBFB9
:1047D40054F8047B794042F8041B043DF2DC0435B0
:1047E4004FEAC5054FF0FF3707FA05F721EA07013D
:1047F40043EA0103002E3FD0434B0022C3F80C21AF
:104804000822C3F80423374E06F1DC043F4D0FCDD4
:104814000FC40FCD0FC40FCD0FC42B682360BFF39B
:104824005F8F042306F58E7151E8002F42EA0302DC
:1048340041E80023002BF7D1BFF35F8FB6F8603255
:104844000133A6F86032324A0C2382F85030254BEB
:1048540093F80C116FF3C71183F80C110021C3F8FE
:10486400101182F85110C3E02A4A7AE72A4A78E7FD
:104874002A4A76E71F4A74E70122234B1A6103F59B
:10488400E0431A64D3F84035164AD2F894120B4424
:104894001F49486D1B1AC2F8943200234B65B2F8C5
:1048A40078320133A2F87832CDE71D4BD3F84C159A
:1048B40001F5A071C3F84C150022C3F84C2103F58F
:1048C400B833184AC3F8A825A2F5E242483AC3F817
:1048D400AC254FF40022C3F804250124104A2046D5
:1048E4000025E6E47C010020F46400005865000023
:1048F40064040020600200208B0300208504002053
:104904008604002082020020001000405C04002085
:1049140040040020B4030020B0030020C0030020A2
:10492400008000404C8100404B4BD3F84C350122B1
:104934004A4B5A6003F5E0431A64D3F840154848DB
:1049440041F001014165474D474BC5F8A83503F5D2
:10495400DE434433C5F8AC354FF40023C5F80435C1
:10496400424BD3F8D42002F00302342101FB02F1BC
:104974008C1C1C44394AC2F80445D3F8D440013491
:10498400C3F8D0404FF48024C5F804450B440021FB
:10499400D970C2F80411C2F80C11C2F8281140F2FF
:1049A4000A43C2F80433436803F5C07202602A4A1A
:1049B40001211164D2F8402590F8501000293FF4E9
:1049C4009AAC27494A691344A3F58073224AC2F872
:1049D4004C350023C2F84C31254B4FF48070C3F89A
:1049E40080014FF40023C2F80433102381F85030BF
:1049F4001E4BB3F81821013292B2A3F81821BFF369
:104A04005F8F022203F58E7353E8001F41EA02010F
:104A140043E80012002AF7D1BFF35F8F104BD96827
:104A24000029B8BF07310E4A536803F5C85303EB96
:104A3400E103536092F85120012A094A0CBF91699D
:104A44005169074A5B1A936092F850300C2B7FF43B
:104A54005EACFFF7D3F85AE4008000400010004039
:104A64004004002000F00140041100407C010020BB
:104A740000E100E008B5084B1B6853B1074B012265
:104A84001A64D3F84025064BC3F89C22024B00223B
:104A94001A60FFF7C9FB08BD7801002000800040C0
:104AA4007C01002010B5FCF7E5FC032836D11F4A31
:104AB4004323C2F80032D2F8183523F0FF0343F041
:104AC4002C03C2F8183540F28913C2F86035184B2C
:104AD4001849C3F8A015A1F58C71C3F8A4154FF0BB
:104AE400FF30A3F5B833C3F80803134B002183F850
:104AF40008134FF48074C3F880411C60C2F80803A3
:104B040083F801130222C3F880211A6003F540637D
:104B140019614FF080430122DA6710BD40F2B6629A
:104B24000649074800F04CF9C1E700BF00100040F7
:104B340000F001402811004000E100E0F4640000AE
:104B44006465000010B52F4C10222F49204600F058
:104B54006FFA0A222D49204600F06AFA4FF4E572F2
:104B64002B49204600F064FA40F29222294920465B
:104B740000F05EFA04222849204600F059FA022285
:104B84002649204600F054FA4FF42A72244920465C
:104B940000F04EFA08222349204600F049FA302258
:104BA4002149204600F044FA07222049204600F01B
:104BB4003FFA4FF45C621E49204600F039FA4FF484
:104BC400C0721C49204600F033FA40221A4920469C
:104BD40000F02EFA4FF45C621849204600F028FADF
:104BE400174C14221749204600F022FA31221649A4
:104BF400204600F01DFA41F635021449204600F023
:104C040017FA10BDF05F000088650000A065000081
:104C1400B4650000C4650000D4650000EC650000C4
:104C240004660000146600002C6600003C66000068
:104C34004C6600005C660000746600008866000034
:104C4400B066000098660000BC660000D8660000EC
:104C5400054B0022DA601A614FF424729A6140F223
:104C6400AE425A61704700BF400400202B4BD3F87A
:104C740010314BB32A490C2381F85030012281F8BA
:104C84005120EFF3108072B6BFF35F8F254BDA64C7
:104C9400D3F84C2502F10A02C3F84C25BFF35F8F09
:104CA40080F31088D3F84C2502F5A2624A60D3F849
:104CB4004C2502F5A072C3F84C25BFF35F8F4FF467
:104CC4000022C3F804237047154A002382F85030A9
:104CD40082F85130EFF3108072B6BFF35F8F114B3F
:104CE4000121D964D3F84C1501F10A01C3F84C151C
:104CF400BFF35F8F80F31088D3F84C1501F5A261E0
:104D04005160D3F84C2502F5A072C3F84C25BFF3CB
:104D14005F8F4FF40022C3F8042370477C01002006
:104D24004004002000800040002838D010B502461E
:104D34001C4B01211964D3F840151B4B9B68A3F24B
:104D44005263581A0028BCBF01F1004303F1FF333A
:104D5400EFF3108472B6BFF35F8F134991F85010CC
:104D640009B9022A07D10F4901200864D1F8401576
:104D7400CB1A002B05DBBFF35F8F84F3108801206F
:104D840010BD094B83F851205A689969521A9A60E8
:104D940093F85030102BEED0FEF730FFEBE70120F4
:104DA400704700BF0080004040040020014B93F88E
:104DB40051007047400400200048704794040020CC
:104DC400FEE700007F2805D8034B185C034B5B5CAF
:104DD40018407047002070471C6700009C67000063
:104DE400A0F16103192B98BF20387047A0F141034B
:104DF400192B98BF203070477F2805D8034B185CC7
:104E0400034B5B5C18407047002070471C67000030
:104E14009C670000A0F16103192B98BF20387047EC
:104E2400A0F14103192B98BF203070477F299ABF06
:104E3400017001206FF02E0070475AB10A787F2A62
:104E44000AD800B10260002119605960501A18BFD5
:104E540001207047002070476FF02E00704738B56E
:104E640004460846A26842B1236861685D1C8D420D
:104E740008BF00208B4208D2D054E3682BB12168CC
:104E84006268914201D22146984723680133236026
:104E940038BD70B54C1E09D41646C5B229463046F5
:104EA400FFF7DDFF013CB4F1FF3FF7D170BD10F017
:104EB400100F08D108B510F4007F14BF3020202053
:104EC400FFF7E7FF08BD704708B5034B5B689B68B5
:104ED4001B68984708BD00BF8C00002008B5072157
:104EE400FFF7F2FF08BD08B50621FFF7EDFF08BD87
:104EF40008B50421FFF7E8FF08BD38B504460D46A0
:104F0400FFF7F6FF30B1A4F13000A842A8BF4FF07C
:104F1400FF3038BD2046FFF7E6FF10B1A4F157007B
:104F2400F3E72046FFF7DAFF10B1A4F13700ECE70E
:104F34004FF0FF30E9E708B50821FFF7C5FF08BDCA
:104F440000B5FFF739FF024B18445DF804FB00BFBE
:104F5400080000002DE9F04F83B001908B46924683
:104F64000446264614F8015BE5B12846FFF7E3FF43
:104F74000028F6D1302D15D1B31C257805F0DF02B9
:104F8400582A06D0BAF1000F4ED14FF0010A082674
:104F940006E03AF0100243D1A31C6578924610262D
:104FA4001C4603E0BAF1000F05D10A264FF00008B1
:104FB4004746C14614E056464FF0000AF6E708FBA0
:104FC40006084FEA184307FB06371FFA88F8B7F5B7
:104FD400803F28BF4FF0010914F8015B4FF0010A2C
:104FE40031462846FFF789FF0028E8DABBF1000FB5
:104FF40007D0BAF1000F01D0631E0193019BCBF8D7
:105004000030B9F1000F04D148EA074003B0BDE80D
:10501400F08FFFF795FF222303604FF0FF30F5E791
:1050240056464FF0010ABBE756464FF0010AB7E770
:105034000FB410B586B008AB53F8044B05930023A6
:1050440003936FF000430293084B049300F02AFC8F
:10505400059A214601A800F00BF9044600F023FC50
:10506400204606B0BDE8104004B07047AD1A0000F9
:10507400037853B159B10144034613F8012F12B117
:105084008B42FAD10B46181A70470346FBE70346D6
:10509400F9E72DE9F04782B08046894692460446F6
:1050A400274614F8015B55B32846FFF744FF06462C
:1050B4000028F5D12B2D15D1524601A92046FFF722
:1050C40049FF0346B9F1000F2CD0019AA24208BF50
:1050D4004246C9F800202EB3002B1CDB584202B014
:1050E400BDE8F0872D2D0AD1524601A92046FFF7CD
:1050F40031FF0346B9F1000FEED00126E5E7524631
:1051040001A93846FFF726FF0346B9F1000F09D07D
:105114003C460026D9E7FFF713FF222202604FF036
:105124000040DCE71846002BD9DAFFF709FF2223F9
:1051340003606FF00040D2E738B50446FFF700FF84
:1051440005680A2200212046FFF7A3FF0446FFF763
:10515400F7FE0560204638BD844640EA010313F09B
:10516400030F18D18446202A0BD32DE9F007B1E8A8
:10517400F807A0E8F807A2F12002202AF7D2BDE838
:10518400F007042A07D351F8043B40F8043BA2F18A
:105194000402042AF7D2002A05D011F8013B00F8D2
:1051A400013B013AF9D1604670478446002A2DD06C
:1051B40010F0030F04D000F8011B013A26D0F7E7E2
:1051C400C9B241EA012141EA0141202A12D3A2F1E4
:1051D40020022DE9F0030B460C460D460E460F4601
:1051E40088468946A0E8FA03203AFBD2BDE8F003DA
:1051F40020320BD0042A05D340F8041B043A05D00E
:10520400042AF9D200F8011B013AFBD16046704729
:1052140000F1010110F0030F11D010F8012B002A46
:1052240023D010F0030F0AD010F8012B002A1CD051
:1052340010F0030F03D010F8012B002A15D02DE92C
:1052440070004FF001324FF0803350F8044BA4EB60
:10525400020525EA04051D4000D1F6E7A0F104008B
:1052640070BC10F8012B002AFBD1A0EB01007047A1
:105274002DE9F04F89B007460392002303600C46E2
:1052840014F8011B002900F0FA82DFF814B5E9E2F2
:10529400002507E05E2868D145F4805501E045F01B
:1052A40040051C46234613F8010B3028F2D81F286A
:1052B40037D9A0F12002102A33D801A151F822F0E5
:1052C400A352000027530000275300000953000095
:1052D4002753000027530000275300000F530000FA
:1052E40027530000275300002753000015530000E4
:1052F400275300001B5300002753000027530000CE
:105304002153000045F08005CBE745F40045C8E78C
:1053140045F02005C5E745F01005C2E745F40075E2
:10532400BFE72A2821D1039A111D0391D2F800A0C6
:10533400BAF1000FBCBFCAF1000A45F01005187895
:10534400A31C2AEAEA7A2E2826D00021742847D002
:105354007A2845D06C2800F0A8804C2800F0AB8057
:10536400682800F0B8801C463DE0A0F13002D2B2BB
:10537400092A88BF4FF0000AE3D84FF0000A0AEB6D
:105384008A0A303800EB4A0A13F8010BA0F1300204
:10539400D2B2092AF3D9D4E718782A280AD1039A71
:1053A400111D03911168587802330029CEDB45F4AE
:1053B4008075CBE70133A0F13002D2B2092A88BF4D
:1053C4000021F4D8002101EB8101303800EB4101C8
:1053D40013F8010BA0F13002D2B2092AF3D9E4E7A1
:1053E4001C4614F8010B002800F05582A0F1250397
:1053F400DBB2532B62D8A0F12503532B5ED8DFE830
:1054040013F076005D005D005D005D005D005D00F1
:105414005D005D005D005D005D005D005D005D00A0
:105424005D005D005D005D005D005D005D005D0090
:105434005D005D005D005D005D005D005D005D0080
:105444005D005D005D005D005D005D005D005D0070
:105454005D005D005D005D005D005D005D005D0060
:105464005D005D005D005D00EB005D005D005D00C2
:105474005D005D005D005D005D005D005D007B0022
:1054840020015D005D005D005D0020015D005D00A8
:105494005D005D0095000E01D1005D005D00A60079
:1054A4005D0019015D005D00ED001C4614F8010B60
:1054B40045F0010597E745F001051C46B44B1E680D
:1054C400002E00F0CC8103AB0193009153462A4691
:1054D4003946B047C3E11878682803D05C1C45F00E
:1054E400040580E745F008059C1C58787BE72521D6
:1054F4003846FFF7B4FCB2E1039B1A1D03921E78F1
:105504000AF1FF3A3A4651462846FFF7D0FC3146A5
:105514003846FFF7A4FCA94619F0100F00F09F814C
:105524003A4651462020FFF7B4FC98E115F0080FE5
:1055340006D03A68039B191D03911B681A708EE10B
:10554400039B1A1D03921B683A681A6087E1039B48
:105554001A1D0392D3F800808E4BB8F1000F08BFD8
:105564009846464625F4007915F4807F15D04046C8
:10557400FFF77EFD0546AAEB050A3A465146484622
:10558400FFF795FC002DC7D0454416F8011B38469B
:10559400FFF765FCB542F8D1BEE74046FFF738FE99
:1055A4000546E8E7039B1A1D03921B6815F0800F5C
:1055B4000CBF0026232645F4807508211A46002BCB
:1055C40000F0298105AB4FF0000805F4005CA64605
:1055D40060468C460146D1E045F4005515F0800F35
:1055E4001BD043F2780643F25803782818BF1E46AE
:1055F40015F4807F01D025F4007515F4804F32D066
:10560400039B1A1D03921B6815F0040F1FD01BB2D5
:10561400002B20DA5B422D262DE00026E8E715F06A
:10562400800F0CBF0026302615F4807FE5D025F4CA
:105634000075E2E715F4807F07D025F40075002695
:10564400DBE745F480450026D7E70026D5E715F0CB
:10565400080FDDD0DBB215F0200F60D115F0400F3C
:1056640018BF202607E0039B1A1D03921B6815F040
:10567400040F4FD09BB215F4807F14BF25F400753E
:1056840001215838202800F2AE8001A252F820F0FF
:10569400C1550000EB570000EB570000EB5700002A
:1056A400EB570000EB570000EB570000EB570000EE
:1056B400EB570000EB570000EB570000EB570000DE
:1056C4004F570000EB570000EB570000EB5700006A
:1056D400EB5700004F570000EB570000EB5700005A
:1056E400EB570000EB570000EB5700002757000072
:1056F400C1550000EB570000EB570000EB570000CA
:10570400EB5700004F570000EB570000EB57000029
:10571400C155000015F0080FADD0DBB2ABE72B2666
:10572400A9E71A464FF00008002B5ED005A84FF0F9
:10573400000803F00703303300F8013B08F10108C7
:10574400D2081346002AF4D14FE018464FF000085F
:10575400002B4AD04FF0000805F4004E4FF02C09FE
:1057640073468E4619462FE002F00F000A4C205C67
:1057740003F8010B08F10108120906D00029F3D03F
:1057840002F00F00054C205CF2E7744661462CE001
:1057940098040020706900005069000060690000EE
:1057A400CDCCCCCC08AB03EB080CABFB0032D2085D
:1057B40002EB8203A0EB430330330CF80C3C08F1FA
:1057C400010809280DD910460029EBD008F003037D
:1057D400032BE7D108AB434403F80C9C08F1010800
:1057E400E0E7714601E04FF00008A1EB080121EA6F
:1057F400E179AAEB090AAAEB080AFF2E0ED9AAF14D
:10580400020AC6F307213846FFF729FBF1B23846EE
:10581400FFF725FB04E04FF00008E6E7002E3DD13A
:105824003A4651462846FFF742FB3A46494630205D
:10583400FFF72FFBB8F1000F0EDD0DF1140908F18D
:10584400FF38C84498F8001046463846FFF707FB6F
:10585400C14508F1FF38F5D115F0100F09D114F83E
:10586400011B61B125293FF413AD3846FFF7F7FA60
:10587400F5E73A4651462020FFF70BFBEFE7BB68FC
:105884002BB13A6879688A423CBF00219954386840
:1058940009B0BDE8F08F4FF0FF30F9E70AF1FF3AA5
:1058A400B4E700BF70477047000000005FF800F0E5
:0458B4002B000020A5
:1058B800426F6C742063616E6E6F7420626520693C
:1058C8006E697469616C697A6564210A0000000078
:1058D800486172647761726520696E697469616C88
:1058E800697A65642E20436F6D70696C6564206108
:1058F80074205F5F444154455F5F205F5F54494DAA
:10590800455F5F203D204D617220203420323032C7
:10591800362030313A34373A35350A0030313A34A6
:10592800373A35350000000076657273696F6E206E
:1059380068617368203D2025750A0000544F535F45
:105948004E4F44455F4944206E6F74207365742E32
:1059580020656E7465722076616C75653A2000006A
:105968000A544F535F4E4F44455F49442073657452
:1059780020746F2025750A0052657374617274690A
:105988006E672073797374656D2E2E2E0A000000E1
:105998007374617274696E67206E6F646520257513
:1059A800202E2E2E0A00000072616E646F6D207327
:1059B80065656420666F72204D6978657220697329
:1059C8002025750A000000002121212050414E4960
:1059D800433A206E6F6465206D617070696E672050
:1059E8006E6F7420666F756E6420666F72206E6FBE
:1059F8006465202575202121210A00006D617070E1
:105A0800656420706879736963616C206E6F646582
:105A180020257520746F206C6F676963616C20693D
:105A2800642025750A0000004150206861732061D8
:105A38002074696D652077696E646F77206F6620C2
:105A4800257520757320666F722063616C63756CB1
:105A58006174696F6E20616E642077726974696E13
:105A68006720746F20426F6C742E0A00232049440B
:105A78003A25752000000000726F756E643D25752B
:105A88002072616E6B3D257520696E69744465638B
:105A98003D2575206374726C4465633D25752070DF
:105AA80072694465633D2575206E6F744465633D76
:105AB8002575207765616B3D2575207765616B4697
:105AC8003D25750A000000006167677265676174AB
